:100000000C942A000C943C000C943C000C943C0092
:100010000C943C000C943C000C943C000C943C0070
:100020000C943C000C943C000C943C000C94740028
:100030000C943C000C943C000C943C000C943C0050
:100040000C943C000C943C000C943C000C943C0040
:100050000C943C0011241FBECFE5D8E0DEBFCDBF1D
:1000600010E0A0E6B0E001C01D92A436B107E1F7B0
:100070000E94C0000C94CB000C9400008898089556
:100080008998089520B330E021703070822F932F2B
:10009000089520B330E022703070822F932F08959E
:1000A0008FEF84BB089582E085BB089581E085BB16
:1000B000089515BA08958AB38FEF8ABB08958BB35C
:1000C000682B6BBB08958BB368236BBB08952BB370
:1000D00081E090E0AC0102C0440F551F6A95E2F741
:1000E000BA0162276BBB08951F920F920FB60F9251
:1000F00011242F933F934F935F936F937F938F932D
:100100009F93AF93BF93EF93FF93609160007091C3
:10011000610080916200909163000E94670080916D
:10012000600090916100A0916200B091630001961F
:10013000A11DB11D8093600090936100A0936200A7
:10014000B093630083309105A105B10540F0109292
:100150006000109261001092620010926300FF91A3
:10016000EF91BF91AF919F918F917F916F915F912F
:100170004F913F912F910F900FBE0F901F901895A8
:100180008FEF8ABB8BBB85E089BF12BE8EB58260C4
:0A0190008EBD7894FFCFF894FFCFE6
:00000001FF
