:100000000C942A000C9434000C9434000C943400AA
:100010000C9434000C9434000C9434000C94340090
:100020000C9434000C9434000C9434000C94340080
:100030000C9434000C9434000C9434000C94340070
:100040000C9434000C9434000C9434000C94340060
:100050000C94340011241FBECFE5D8E0DEBFCDBF25
:100060000E9453000C946A000C9400008898089534
:100070008998089520B330E021703070822F932F3B
:10008000089520B330E022703070822F932F0895AE
:100090008FEF84BB089582E085BB089581E085BB26
:1000A000089515BA08950E9448000E9436000E94E3
:1000B00038000E943A00009719F00E944B00F9CFD7
:1000C0000E944100009719F00E944E00F2CF0E945A
:0800D0005100EFCFF894FFCFBF
:00000001FF
